{
  "contractName": "CommunityChest",
  "abi": [
    {
      "anonymous": false,
      "inputs": [
        {
          "indexed": false,
          "internalType": "address",
          "name": "_winner",
          "type": "address"
        },
        {
          "indexed": false,
          "internalType": "uint256",
          "name": "amount",
          "type": "uint256"
        }
      ],
      "name": "Award",
      "type": "event"
    },
    {
      "anonymous": false,
      "inputs": [
        {
          "indexed": false,
          "internalType": "address",
          "name": "_from",
          "type": "address"
        },
        {
          "indexed": false,
          "internalType": "uint256",
          "name": "amount",
          "type": "uint256"
        }
      ],
      "name": "Deposit",
      "type": "event"
    },
    {
      "stateMutability": "payable",
      "type": "fallback",
      "payable": true
    },
    {
      "inputs": [],
      "name": "tokenContract",
      "outputs": [
        {
          "internalType": "contract ElonCoin",
          "name": "",
          "type": "address"
        }
      ],
      "stateMutability": "view",
      "type": "function",
      "constant": true
    },
    {
      "stateMutability": "payable",
      "type": "receive",
      "payable": true
    },
    {
      "inputs": [],
      "name": "withdraw",
      "outputs": [],
      "stateMutability": "payable",
      "type": "function",
      "payable": true
    },
    {
      "inputs": [],
      "name": "cashOverflow",
      "outputs": [],
      "stateMutability": "payable",
      "type": "function",
      "payable": true
    },
    {
      "inputs": [
        {
          "internalType": "address",
          "name": "_participant",
          "type": "address"
        },
        {
          "internalType": "uint256",
          "name": "eth",
          "type": "uint256"
        },
        {
          "internalType": "uint256",
          "name": "elon",
          "type": "uint256"
        }
      ],
      "name": "SetParticipantValues",
      "outputs": [
        {
          "internalType": "bool",
          "name": "",
          "type": "bool"
        }
      ],
      "stateMutability": "nonpayable",
      "type": "function"
    },
    {
      "inputs": [],
      "name": "ResetParticipantValues",
      "outputs": [
        {
          "internalType": "bool",
          "name": "",
          "type": "bool"
        }
      ],
      "stateMutability": "nonpayable",
      "type": "function"
    },
    {
      "inputs": [],
      "name": "whoami",
      "outputs": [
        {
          "internalType": "address",
          "name": "",
          "type": "address"
        }
      ],
      "stateMutability": "view",
      "type": "function",
      "constant": true
    },
    {
      "inputs": [],
      "name": "getBalance",
      "outputs": [
        {
          "internalType": "uint256",
          "name": "",
          "type": "uint256"
        }
      ],
      "stateMutability": "view",
      "type": "function",
      "constant": true
    },
    {
      "inputs": [],
      "name": "calculateOverflowGasPrice",
      "outputs": [
        {
          "internalType": "uint256",
          "name": "",
          "type": "uint256"
        }
      ],
      "stateMutability": "view",
      "type": "function",
      "constant": true
    }
  ],
  "bytecode": "0x60806040526000600255600160035534801561001a57600080fd5b506107548061002a6000396000f3fe60806040526004361061007f5760003560e01c806355a373d61161004e57806355a373d614610176578063ae45f3bc146101cd578063b3b36bb31461024a578063e42e4b50146102a15761010a565b806312065fe01461010c5780633b800ce6146101375780633ccfd60b14610141578063450ed5441461014b5761010a565b3661010a57610090333460006102d0565b506001339080600181540180825580915050600190039060005260206000200160009091909190916101000a81548173ffffffffffffffffffffffffffffffffffffffff021916908373ffffffffffffffffffffffffffffffffffffffff160217905550600160025401600281905550610108610399565b005b005b34801561011857600080fd5b506101216104cc565b6040518082815260200191505060405180910390f35b61013f610399565b005b6101496104d4565b005b34801561015757600080fd5b5061016061051d565b6040518082815260200191505060405180910390f35b34801561018257600080fd5b5061018b610533565b604051808273ffffffffffffffffffffffffffffffffffffffff1673ffffffffffffffffffffffffffffffffffffffff16815260200191505060405180910390f35b3480156101d957600080fd5b50610230600480360360608110156101f057600080fd5b81019080803573ffffffffffffffffffffffffffffffffffffffff16906020019092919080359060200190929190803590602001909291905050506102d0565b604051808215151515815260200191505060405180910390f35b34801561025657600080fd5b5061025f610559565b604051808273ffffffffffffffffffffffffffffffffffffffff1673ffffffffffffffffffffffffffffffffffffffff16815260200191505060405180910390f35b3480156102ad57600080fd5b506102b6610561565b604051808215151515815260200191505060405180910390f35b6000806000808673ffffffffffffffffffffffffffffffffffffffff1673ffffffffffffffffffffffffffffffffffffffff1681526020019081526020016000209050838160000160008282540192505081905550828160010160008282540192505081905550806000808773ffffffffffffffffffffffffffffffffffffffff1673ffffffffffffffffffffffffffffffffffffffff168152602001908152602001600020600082015481600001556001820154816001015590505060019150509392505050565b6103a161051d565b6103a96104cc565b11156104ca577f473edf73b107bf5d270ea55a7ea4ce98a1b5618dd196e00d5a48e101299b26d460016000815481106103de57fe5b9060005260206000200160009054906101000a900473ffffffffffffffffffffffffffffffffffffffff1634604051808373ffffffffffffffffffffffffffffffffffffffff1673ffffffffffffffffffffffffffffffffffffffff1681526020018281526020019250505060405180910390a1600160035401600381905550610466610561565b5060018054905067ffffffffffffffff8111801561048357600080fd5b506040519080825280602002602001820160405280156104b25781602001602082028036833780820191505090505b50600190805190602001906104c8929190610637565b505b565b600047905090565b3373ffffffffffffffffffffffffffffffffffffffff166108fc479081150290604051600060405180830381858888f1935050505015801561051a573d6000803e3d6000fd5b50565b6000662386f26fc1000060026003540a02905090565b600560009054906101000a900473ffffffffffffffffffffffffffffffffffffffff1681565b600030905090565b600061056b6106c1565b6000816000018181525050600081602001818152505060008090505b60018054905081101561062e5781600080600184815481106105a557fe5b9060005260206000200160009054906101000a900473ffffffffffffffffffffffffffffffffffffffff1673ffffffffffffffffffffffffffffffffffffffff1673ffffffffffffffffffffffffffffffffffffffff16815260200190815260200160002060008201518160000155602082015181600101559050508080600101915050610587565b50600191505090565b8280548282559060005260206000209081019282156106b0579160200282015b828111156106af5782518260006101000a81548173ffffffffffffffffffffffffffffffffffffffff021916908373ffffffffffffffffffffffffffffffffffffffff16021790555091602001919060010190610657565b5b5090506106bd91906106db565b5090565b604051806040016040528060008152602001600081525090565b61071b91905b8082111561071757600081816101000a81549073ffffffffffffffffffffffffffffffffffffffff0219169055506001016106e1565b5090565b9056fea26469706673582212206069b400eb6a007602fd110f0313500a9adcf1273f5ef9d792d28b1c961e38dd64736f6c63430006060033",
  "immutableReferences": {},
  "source": "//SPDX-License-Identifier: UNLICENSED\n\npragma solidity >=0.4.22 <0.9.0;\n\nimport \"@chainlink/contracts/src/v0.6/VRFConsumerBase.sol\";\nimport \"./ElonCoin.sol\";\n\ncontract CommunityChest {\n\n    struct ParticipantValues {\n        uint256 depositedEthereum;\n        uint256 depositedElon;\n    }\n\n    mapping (address => ParticipantValues) participants;\n    address [] participantAddresses;\n\n    \n    uint private count = 0;\n    uint private round = 1;\n    address private winner;    \n    ElonCoin public tokenContract;\n\n    event Deposit(address _from, uint amount);\n    event Award(address _winner, uint amount);\n\n    function withdraw() payable public {\n        msg.sender.transfer(address(this).balance);\n    }\n\n    //When the community chest hits a certain number, award one participant with the winnnings.\n    function cashOverflow() payable public {\n\n        if(getBalance() > calculateOverflowGasPrice()){\n            //TODO: calculate winner.\n            //participants[winner].transfer(getBalance());\n\n            emit Award(participantAddresses[0], msg.value);\n            round = round + 1;\n            ResetParticipantValues();\n            participantAddresses = new address[](participantAddresses.length);\n        }\n    }\n\n    //Sets the \n    function SetParticipantValues(address _participant, uint256 eth, uint256 elon) public returns (bool) {\n        \n        ParticipantValues storage curParticipantValues = participants[_participant];\n        curParticipantValues.depositedEthereum += eth;\n        curParticipantValues.depositedElon += elon;\n        participants[_participant] = curParticipantValues;\n        return true;\n    }\n\n    function ResetParticipantValues() public returns (bool) {\n        ParticipantValues memory valuesAt0;\n        valuesAt0.depositedEthereum = 0;\n        valuesAt0.depositedElon = 0;\n\n        for(uint i=0; i<participantAddresses.length; i++) {\n            participants[participantAddresses[i]] = valuesAt0;\n        }\n        return true;\n    }\n\n    // function deposit() payable public {\n    //     //require(msg.value == amt);\n    //     //emit Deposit(msg.sender, msg.value); \n        \n    // }\n\n    receive() external payable {\n        // custom function code\n        \n        SetParticipantValues(msg.sender, msg.value, 0);\n        participantAddresses.push(msg.sender);\n        count = count + 1;\n        //Generate new ElonCoin.\n        cashOverflow();\n    }\n\n    fallback() external payable {\n        \n    }\n\n    //Returns the smart contract's address.\n    function whoami() public view returns (address) {\n        return address(this);\n    }\n\n    //Returns the balance of this smart contract.\n    function getBalance() public view returns (uint256) {\n        return address(this).balance;\n    }\n\n    function calculateOverflowGasPrice() public view returns (uint256) {\n        return (round**2)*10**16;\n    }\n\n}\n",
  "sourcePath": "/mnt/d/solidity_smart_contracts/contracts/community_chest.sol",
  "compiler": {
    "name": "solc",
    "version": "0.6.6+commit.6c089d02.Emscripten.clang"
  },
  "schemaVersion": "3.3.3",
  "updatedAt": "2021-03-20T03:18:52.233Z",
  "networkType": "ethereum",
  "devdoc": {
    "methods": {}
  },
  "userdoc": {
    "methods": {}
  }
}