{
  "contractName": "CommunityChest",
  "abi": [
    {
      "anonymous": false,
      "inputs": [
        {
          "indexed": false,
          "internalType": "address",
          "name": "_winner",
          "type": "address"
        },
        {
          "indexed": false,
          "internalType": "uint256",
          "name": "amount",
          "type": "uint256"
        }
      ],
      "name": "Award",
      "type": "event"
    },
    {
      "anonymous": false,
      "inputs": [
        {
          "indexed": false,
          "internalType": "address",
          "name": "_from",
          "type": "address"
        },
        {
          "indexed": false,
          "internalType": "uint256",
          "name": "amount",
          "type": "uint256"
        }
      ],
      "name": "Deposit",
      "type": "event"
    },
    {
      "payable": true,
      "stateMutability": "payable",
      "type": "fallback"
    },
    {
      "constant": false,
      "inputs": [],
      "name": "withdraw",
      "outputs": [],
      "payable": true,
      "stateMutability": "payable",
      "type": "function"
    },
    {
      "constant": false,
      "inputs": [],
      "name": "cashOverflow",
      "outputs": [],
      "payable": true,
      "stateMutability": "payable",
      "type": "function"
    },
    {
      "constant": true,
      "inputs": [],
      "name": "whoami",
      "outputs": [
        {
          "internalType": "address",
          "name": "",
          "type": "address"
        }
      ],
      "payable": false,
      "stateMutability": "view",
      "type": "function"
    },
    {
      "constant": true,
      "inputs": [],
      "name": "getBalance",
      "outputs": [
        {
          "internalType": "uint256",
          "name": "",
          "type": "uint256"
        }
      ],
      "payable": false,
      "stateMutability": "view",
      "type": "function"
    },
    {
      "constant": true,
      "inputs": [],
      "name": "calculateOverflowGasPrice",
      "outputs": [
        {
          "internalType": "uint256",
          "name": "",
          "type": "uint256"
        }
      ],
      "payable": false,
      "stateMutability": "pure",
      "type": "function"
    }
  ],
  "bytecode": "0x6080604052600a6040519080825280602002602001820160405280156100345781602001602082028038833980820191505090505b506000908051906020019061004a929190610067565b506000600155600160025534801561006157600080fd5b50610134565b8280548282559060005260206000209081019282156100e0579160200282015b828111156100df5782518260006101000a81548173ffffffffffffffffffffffffffffffffffffffff021916908373ffffffffffffffffffffffffffffffffffffffff16021790555091602001919060010190610087565b5b5090506100ed91906100f1565b5090565b61013191905b8082111561012d57600081816101000a81549073ffffffffffffffffffffffffffffffffffffffff0219169055506001016100f7565b5090565b90565b610474806101436000396000f3fe60806040526004361061004a5760003560e01c806312065fe0146100b75780633b800ce6146100e25780633ccfd60b146100ec578063450ed544146100f6578063b3b36bb314610121575b3360006001548154811061005a57fe5b9060005260206000200160006101000a81548173ffffffffffffffffffffffffffffffffffffffff021916908373ffffffffffffffffffffffffffffffffffffffff16021790555060018054016001819055506100b5610178565b005b3480156100c357600080fd5b506100cc610311565b6040518082815260200191505060405180910390f35b6100ea610178565b005b6100f4610319565b005b34801561010257600080fd5b5061010b610362565b6040518082815260200191505060405180910390f35b34801561012d57600080fd5b5061013661036a565b604051808273ffffffffffffffffffffffffffffffffffffffff1673ffffffffffffffffffffffffffffffffffffffff16815260200191505060405180910390f35b655af3107a400060025460020a0261018e610311565b111561030f57600080815481106101a157fe5b9060005260206000200160009054906101000a900473ffffffffffffffffffffffffffffffffffffffff1673ffffffffffffffffffffffffffffffffffffffff166108fc6101ed610311565b9081150290604051600060405180830381858888f19350505050158015610218573d6000803e3d6000fd5b507f473edf73b107bf5d270ea55a7ea4ce98a1b5618dd196e00d5a48e101299b26d46000808154811061024757fe5b9060005260206000200160009054906101000a900473ffffffffffffffffffffffffffffffffffffffff1634604051808373ffffffffffffffffffffffffffffffffffffffff1673ffffffffffffffffffffffffffffffffffffffff1681526020018281526020019250505060405180910390a1600160025401600281905550600a6040519080825280602002602001820160405280156102f75781602001602082028038833980820191505090505b506000908051906020019061030d929190610372565b505b565b600047905090565b3373ffffffffffffffffffffffffffffffffffffffff166108fc479081150290604051600060405180830381858888f1935050505015801561035f573d6000803e3d6000fd5b50565b600080905090565b600030905090565b8280548282559060005260206000209081019282156103eb579160200282015b828111156103ea5782518260006101000a81548173ffffffffffffffffffffffffffffffffffffffff021916908373ffffffffffffffffffffffffffffffffffffffff16021790555091602001919060010190610392565b5b5090506103f891906103fc565b5090565b61043c91905b8082111561043857600081816101000a81549073ffffffffffffffffffffffffffffffffffffffff021916905550600101610402565b5090565b9056fea265627a7a72315820aa223f57e0ba39b6c217eccf6d48c30921521a4501f2531bf2bcdc7a0f19a3cf64736f6c63430005100032",
  "source": "pragma solidity >=0.4.22 <0.9.0;\n\ncontract CommunityChest {\n    address payable[] private participants = new address payable[](10);\n    uint private count = 0;\n    uint private round = 1;\n\n\n    event Deposit(address _from, uint amount);\n    event Award(address _winner, uint amount);\n\n    function withdraw() payable public {\n        msg.sender.transfer(address(this).balance);\n    }\n\n    //When the community chest hits a certain number, award one participant with the winnnings.\n    function cashOverflow() payable public {\n\n        if(getBalance() > (2**round)*10**14){\n            participants[0].transfer(getBalance());\n            emit Award(participants[0], msg.value);\n            round = round + 1;\n            participants = new address payable[](10);\n        }\n    }\n\n    // function deposit() payable public {\n    //     //require(msg.value == amt);\n    //     //emit Deposit(msg.sender, msg.value); \n        \n    // }\n    function() external payable {\n        participants[count] = msg.sender;\n        count = count + 1;\n        //Generate new ElonCoin.\n        cashOverflow();\n    }\n\n    //Returns the smart contract's address.\n    function whoami() public view returns (address) {\n        return address(this);\n    }\n\n    //Returns the balance of this smart contract.\n    function getBalance() public view returns (uint256) {\n        return address(this).balance;\n    }\n\n    function calculateOverflowGasPrice() public pure returns (uint256) {\n        return 0;\n    }\n\n}\n",
  "sourcePath": "/mnt/d/solidity_smart_contracts/contracts/community_chest.sol",
  "compiler": {
    "name": "solc",
    "version": "0.5.16+commit.9c3226ce.Emscripten.clang"
  },
  "schemaVersion": "3.3.3",
  "updatedAt": "2021-02-13T08:32:05.369Z",
  "networkType": "ethereum",
  "devdoc": {
    "methods": {}
  },
  "userdoc": {
    "methods": {}
  }
}