{
  "contractName": "CommunityChest",
  "abi": [
    {
      "anonymous": false,
      "inputs": [
        {
          "indexed": false,
          "internalType": "address",
          "name": "_winner",
          "type": "address"
        },
        {
          "indexed": false,
          "internalType": "uint256",
          "name": "amount",
          "type": "uint256"
        }
      ],
      "name": "Award",
      "type": "event"
    },
    {
      "anonymous": false,
      "inputs": [
        {
          "indexed": false,
          "internalType": "address",
          "name": "_from",
          "type": "address"
        },
        {
          "indexed": false,
          "internalType": "uint256",
          "name": "amount",
          "type": "uint256"
        }
      ],
      "name": "Deposit",
      "type": "event"
    },
    {
      "payable": true,
      "stateMutability": "payable",
      "type": "fallback"
    },
    {
      "constant": false,
      "inputs": [],
      "name": "withdraw",
      "outputs": [],
      "payable": true,
      "stateMutability": "payable",
      "type": "function"
    },
    {
      "constant": false,
      "inputs": [],
      "name": "cashOverflow",
      "outputs": [],
      "payable": true,
      "stateMutability": "payable",
      "type": "function"
    },
    {
      "constant": true,
      "inputs": [],
      "name": "whoami",
      "outputs": [
        {
          "internalType": "address",
          "name": "",
          "type": "address"
        }
      ],
      "payable": false,
      "stateMutability": "view",
      "type": "function"
    },
    {
      "constant": true,
      "inputs": [],
      "name": "getBalance",
      "outputs": [
        {
          "internalType": "uint256",
          "name": "",
          "type": "uint256"
        }
      ],
      "payable": false,
      "stateMutability": "view",
      "type": "function"
    }
  ],
  "bytecode": "0x6080604052600a6040519080825280602002602001820160405280156100345781602001602082028038833980820191505090505b506000908051906020019061004a929190610067565b506000600155600160025534801561006157600080fd5b50610134565b8280548282559060005260206000209081019282156100e0579160200282015b828111156100df5782518260006101000a81548173ffffffffffffffffffffffffffffffffffffffff021916908373ffffffffffffffffffffffffffffffffffffffff16021790555091602001919060010190610087565b5b5090506100ed91906100f1565b5090565b61013191905b8082111561012d57600081816101000a81549073ffffffffffffffffffffffffffffffffffffffff0219169055506001016100f7565b5090565b90565b610437806101436000396000f3fe60806040526004361061003f5760003560e01c806312065fe0146100ac5780633b800ce6146100d75780633ccfd60b146100e1578063b3b36bb3146100eb575b3360006001548154811061004f57fe5b9060005260206000200160006101000a81548173ffffffffffffffffffffffffffffffffffffffff021916908373ffffffffffffffffffffffffffffffffffffffff16021790555060018054016001819055506100aa610142565b005b3480156100b857600080fd5b506100c16102dc565b6040518082815260200191505060405180910390f35b6100df610142565b005b6100e96102e4565b005b3480156100f757600080fd5b5061010061032d565b604051808273ffffffffffffffffffffffffffffffffffffffff1673ffffffffffffffffffffffffffffffffffffffff16815260200191505060405180910390f35b662386f26fc1000060025460020a026101596102dc565b11156102da576000808154811061016c57fe5b9060005260206000200160009054906101000a900473ffffffffffffffffffffffffffffffffffffffff1673ffffffffffffffffffffffffffffffffffffffff166108fc6101b86102dc565b9081150290604051600060405180830381858888f193505050501580156101e3573d6000803e3d6000fd5b507f473edf73b107bf5d270ea55a7ea4ce98a1b5618dd196e00d5a48e101299b26d46000808154811061021257fe5b9060005260206000200160009054906101000a900473ffffffffffffffffffffffffffffffffffffffff1634604051808373ffffffffffffffffffffffffffffffffffffffff1673ffffffffffffffffffffffffffffffffffffffff1681526020018281526020019250505060405180910390a1600160025401600281905550600a6040519080825280602002602001820160405280156102c25781602001602082028038833980820191505090505b50600090805190602001906102d8929190610335565b505b565b600047905090565b3373ffffffffffffffffffffffffffffffffffffffff166108fc479081150290604051600060405180830381858888f1935050505015801561032a573d6000803e3d6000fd5b50565b600030905090565b8280548282559060005260206000209081019282156103ae579160200282015b828111156103ad5782518260006101000a81548173ffffffffffffffffffffffffffffffffffffffff021916908373ffffffffffffffffffffffffffffffffffffffff16021790555091602001919060010190610355565b5b5090506103bb91906103bf565b5090565b6103ff91905b808211156103fb57600081816101000a81549073ffffffffffffffffffffffffffffffffffffffff0219169055506001016103c5565b5090565b9056fea265627a7a723158201ac6cd535813dabaaa0a20dba33cb845c9275eb326022046b4c952f6fd28a6d864736f6c63430005100032",
  "source": "pragma solidity >=0.4.22 <0.9.0;\n\ncontract CommunityChest {\n    address payable[] private participants = new address payable[](10);\n    uint private count = 0;\n    uint private round = 1;\n\n\n    event Deposit(address _from, uint amount);\n    event Award(address _winner, uint amount);\n\n    function withdraw() payable public {\n        msg.sender.transfer(address(this).balance);\n    }\n\n    //When the community chest hits a certain number, award one participant with the winnnings.\n    function cashOverflow() payable public {\n\n        if(getBalance() > (2**round)*10**16){\n            participants[0].transfer(getBalance());\n            emit Award(participants[0], msg.value);\n            round = round + 1;\n            participants = new address payable[](10);\n        }\n    }\n\n    // function deposit() payable public {\n    //     //require(msg.value == amt);\n    //     //emit Deposit(msg.sender, msg.value); \n        \n    // }\n    function() external payable {\n        participants[count] = msg.sender;\n        count = count + 1;\n        //Generate new ElonCoin.\n        cashOverflow();\n    }\n\n    //Returns the smart contract's address.\n    function whoami() public view returns (address) {\n        return address(this);\n    }\n\n    //Returns the balance of this smart contract.\n    function getBalance() public view returns (uint256) {\n        return address(this).balance;\n    }\n\n}\n",
  "sourcePath": "/mnt/d/solidity_smart_contracts/contracts/community_chest.sol",
  "compiler": {
    "name": "solc",
    "version": "0.5.16+commit.9c3226ce.Emscripten.clang"
  },
  "schemaVersion": "3.3.3",
  "updatedAt": "2021-02-12T23:03:53.847Z",
  "networkType": "ethereum",
  "devdoc": {
    "methods": {}
  },
  "userdoc": {
    "methods": {}
  }
}