{
  "contractName": "ElonCoin",
  "abi": [
    {
      "inputs": [],
      "payable": false,
      "stateMutability": "nonpayable",
      "type": "constructor"
    },
    {
      "constant": true,
      "inputs": [],
      "name": "totSupply",
      "outputs": [
        {
          "internalType": "uint256",
          "name": "",
          "type": "uint256"
        }
      ],
      "payable": false,
      "stateMutability": "view",
      "type": "function"
    },
    {
      "constant": true,
      "inputs": [],
      "name": "totalSupply",
      "outputs": [
        {
          "internalType": "uint256",
          "name": "",
          "type": "uint256"
        }
      ],
      "payable": false,
      "stateMutability": "view",
      "type": "function"
    },
    {
      "constant": true,
      "inputs": [
        {
          "internalType": "address",
          "name": "_owner",
          "type": "address"
        }
      ],
      "name": "balanceOf",
      "outputs": [
        {
          "internalType": "uint256",
          "name": "balance",
          "type": "uint256"
        }
      ],
      "payable": false,
      "stateMutability": "view",
      "type": "function"
    },
    {
      "constant": false,
      "inputs": [
        {
          "internalType": "address",
          "name": "_to",
          "type": "address"
        },
        {
          "internalType": "uint256",
          "name": "_value",
          "type": "uint256"
        }
      ],
      "name": "transfer",
      "outputs": [
        {
          "internalType": "bool",
          "name": "success",
          "type": "bool"
        }
      ],
      "payable": false,
      "stateMutability": "nonpayable",
      "type": "function"
    }
  ],
  "bytecode": "0x608060405234801561001057600080fd5b506302625a0060008190555033600160006101000a81548173ffffffffffffffffffffffffffffffffffffffff021916908373ffffffffffffffffffffffffffffffffffffffff1602179055506101b88061006c6000396000f3fe608060405234801561001057600080fd5b506004361061004c5760003560e01c806318160ddd1461005157806370a082311461006f57806381fbf0a5146100c7578063a9059cbb146100e5575b600080fd5b61005961014b565b6040518082815260200191505060405180910390f35b6100b16004803603602081101561008557600080fd5b81019080803573ffffffffffffffffffffffffffffffffffffffff169060200190929190505050610154565b6040518082815260200191505060405180910390f35b6100cf610175565b6040518082815260200191505060405180910390f35b610131600480360360408110156100fb57600080fd5b81019080803573ffffffffffffffffffffffffffffffffffffffff1690602001909291908035906020019092919050505061017b565b604051808215151515815260200191505060405180910390f35b60008054905090565b60008173ffffffffffffffffffffffffffffffffffffffff16319050919050565b60005481565b60009291505056fea265627a7a723158204378429994cf190da1e73f1376785801c5ccd9340bae5e4abd7da8a2321825f364736f6c63430005100032",
  "source": "pragma solidity >=0.4.22 <0.9.0;\r\n\r\ncontract ElonCoin {\r\n\r\n    // Constructor\r\n    //Set the totsal number of tokens\r\n    //Read the tital number of tokens\r\n    uint256 public totSupply;\r\n\r\n    address owner;\r\n    \r\n    constructor() public {\r\n        //10% will be how rich we get\r\n        //We want 1,000,000 each\r\n        //market cap goal must equal 40,000,000\r\n        //total supply = 40 min\r\n\r\n        totSupply = 40000000;\r\n        owner = msg.sender;\r\n\r\n    }\r\n\r\n    //Returns the total token supply.\r\n    function totalSupply() public view returns (uint256) {\r\n        return totSupply;\r\n    }\r\n\r\n    //Returns the account balance of another account with address _owner.\r\n    function balanceOf(address _owner) public view returns (uint256 balance) {\r\n        return address(_owner).balance;\r\n    }\r\n\r\n    //Transfers _value amount of tokens to address _to, and MUST fire the Transfer event. \r\n    //The function SHOULD throw if the message caller's account balance does not have enough tokens to spend.\r\n    function transfer(address _to, uint256 _value) public returns (bool success) {\r\n        \r\n    }\r\n}",
  "sourcePath": "/mnt/d/solidity_smart_contracts/contracts/ElonCoin.sol",
  "compiler": {
    "name": "solc",
    "version": "0.5.16+commit.9c3226ce.Emscripten.clang"
  },
  "schemaVersion": "3.3.3",
  "updatedAt": "2021-02-12T23:03:54.156Z",
  "networkType": "ethereum",
  "devdoc": {
    "methods": {}
  },
  "userdoc": {
    "methods": {}
  }
}