{
  "contractName": "ProductToken",
  "abi": [
    {
      "anonymous": false,
      "inputs": [
        {
          "indexed": false,
          "internalType": "address",
          "name": "_from",
          "type": "address"
        },
        {
          "indexed": false,
          "internalType": "uint256",
          "name": "amount",
          "type": "uint256"
        }
      ],
      "name": "Deposit",
      "type": "event"
    },
    {
      "payable": true,
      "stateMutability": "payable",
      "type": "fallback"
    },
    {
      "constant": false,
      "inputs": [],
      "name": "withdraw",
      "outputs": [],
      "payable": true,
      "stateMutability": "payable",
      "type": "function"
    },
    {
      "constant": true,
      "inputs": [],
      "name": "whoami",
      "outputs": [
        {
          "internalType": "address",
          "name": "",
          "type": "address"
        }
      ],
      "payable": false,
      "stateMutability": "view",
      "type": "function"
    },
    {
      "constant": true,
      "inputs": [],
      "name": "getBalance",
      "outputs": [
        {
          "internalType": "uint256",
          "name": "",
          "type": "uint256"
        }
      ],
      "payable": false,
      "stateMutability": "view",
      "type": "function"
    }
  ],
  "bytecode": "0x608060405234801561001057600080fd5b50610150806100206000396000f3fe6080604052600436106100345760003560e01c806312065fe0146100365780633ccfd60b14610061578063b3b36bb31461006b575b005b34801561004257600080fd5b5061004b6100c2565b6040518082815260200191505060405180910390f35b6100696100ca565b005b34801561007757600080fd5b50610080610113565b604051808273ffffffffffffffffffffffffffffffffffffffff1673ffffffffffffffffffffffffffffffffffffffff16815260200191505060405180910390f35b600047905090565b3373ffffffffffffffffffffffffffffffffffffffff166108fc479081150290604051600060405180830381858888f19350505050158015610110573d6000803e3d6000fd5b50565b60003090509056fea265627a7a72315820ca78113dd4bddbff77cb4b42e22c50e8877dd20bc29b48fee25912a81fe92d4a64736f6c63430005100032",
  "source": "pragma solidity >=0.4.22 <0.9.0;\n\ncontract ProductToken {\n\n    struct product_token {\n        uint256 tokenID;\n        bool used;\n        address customerAddress;\n        uint256 price;\n        string productID;\n    }\n\n    event Deposit(address _from, uint amount);\n\n    function withdraw() payable public {\n        msg.sender.transfer(address(this).balance);\n    }\n    \n    function() external payable {\n    }\n\n    function whoami() public view returns (address) {\n        return address(this);\n    }\n\n    function getBalance() public view returns (uint256) {\n        return address(this).balance;\n    }\n}\n",
  "sourcePath": "/mnt/d/solidity_smart_contracts/contracts/ProductToken.sol",
  "compiler": {
    "name": "solc",
    "version": "0.5.16+commit.9c3226ce.Emscripten.clang"
  },
  "schemaVersion": "3.3.3",
  "updatedAt": "2021-02-09T08:53:17.416Z",
  "devdoc": {
    "methods": {}
  },
  "userdoc": {
    "methods": {}
  }
}